:020000040800F2
:10000000E8120020ED010008C5290008BD290008FC
:10001000C1290008F1130008052D000800000000A8
:10002000000000000000000000000000F1290008AE
:100030004D14000800000000C7290008F32900083B
:10004000070200080702000807020008070200086C
:10005000070200080702000807020008070200085C
:10006000070200080702000807020008F51300084D
:10007000070200080702000807020008070200083C
:10008000070200080702000807020008070200082C
:10009000070200080702000807020008070200081C
:1000A000070200080702000807020008070200080C
:1000B00007020008070200080702000807020008FC
:1000C00007020008070200080702000807020008EC
:1000D00007020008F52C00080702000807020008C4
:1000E00007020008070200080702000807020008CC
:1000F00007020008070200080702000807020008BC
:1001000007020008070200080702000807020008AB
:10011000070200080702000807020008070200089B
:10012000070200080702000807020008070200088B
:1001300000F002F800F04AF80AA090E8000C8244AF
:100140008344AAF10107DA4501D100F03FF8AFF28C
:10015000090EBAE80F0013F0010F18BFFB1A43F0A5
:1001600001031847E8AB000008AC0000103A24BFB8
:1001700078C878C1FAD8520724BF30C830C144BF0C
:1001800004680C607047000000230024002500264E
:10019000103A28BF78C1FBD8520728BF30C148BFEA
:1001A0000B607047662907F01885782900F0608099
:1001B000002070471FB500F031FC04000020002132
:1001C00007F00CF8E0601FBD10B510BD00F02AFD6F
:1001D0001146FFF7EFFF06F05FFC00F048FD03B4A7
:1001E000FFF7F2FF03BC02F09AFE000009488047C7
:1001F00009480047FEE7FEE7FEE7FEE7FEE7FEE709
:10020000FEE7FEE7FEE7FEE704480549054A064B20
:1002100070470000FB29000831010008E80C0020AD
:10022000E8120020E80E0020E80E002070470000D1
:100230000FB4044910B503AA029800F0DDFB10BC0E
:100240005DF814FB1C0000200FB41CB5074B06AA78
:100250007B4469460090059800F0B5FB0020694694
:1002600000F0C4FB1CBC5DF814FB00009907000003
:1002700070B504460D4621461068AFF30080218812
:10028000090502D50F4A7A4402E00E4A7A440E323A
:10029000002104F1240305E000F00F060009965D3B
:1002A0005E54491C0028F7D120780023000704D5AC
:1002B000702D02D009B1022311322046BDE87040F2
:1002C00000F015B9D3A900002DE9F05F8946044676
:1002D0004FF0000ADFF824B1FB44C0F820A020460C
:1002E000E168884700287DD0252806D0D4E901217F
:1002F0009047206A401C2062F1E700255F462046B7
:10030000E16888472028064607DB312E05D2B81958
:1003100010F8200C08B10543F1E7A80701D525F036
:100320000405C4F81CA00027C4F818A02A2E09D080
:10033000304602F0EDFD38B304EB8708303EC8F8D4
:10034000186019E059F8041B204604EB87029161FC
:10035000E1688847012F064618D1E069002820DAB5
:1003600025F020051DE0D8F8180000EB800006EB12
:1003700040003038C8F818002046E1688847064633
:1003800002F0C6FD0028EED1012F0AD02E2E08D192
:100390002046E16888477F1C0646022F45F020056D
:1003A000C4DBA069002803DA404245F00105A061E2
:1003B000E80701D025F01005A6B1A6F141001928E3
:1003C00002D8203645F400654A463146204625606D
:1003D0004D46FFF7E7FE60B1012807D0ED1D25F07F
:1003E000070000E007E000F1080978E705F10409DB
:1003F00075E730467AE7206ABDE8F09FA9A90000BA
:100400004FF0000200B5134694469646203922BFAD
:10041000A0E80C50A0E80C50B1F12001BFF4F7AFF8
:10042000090728BFA0E80C5048BF0CC05DF804EBDA
:10043000890028BF40F8042B08BF704748BF20F848
:10044000022B11F0804F18BF00F8012B70470000FD
:100450004FF0013C50F8042B51F8043B9A4221D153
:10046000A2EB0C03934313EACC1317D150F8042BDF
:1004700051F8043B9A4215D1A2EB0C03934313EAC3
:10048000CC130BD150F8042B51F8043B9A4209D1FC
:10049000A2EB0C03934313EACC13DBD04FF0000024
:1004A000704700BFD01A01BAB1FA81F101F018010A
:1004B00022FA01F0CB40C1F12001DBB2C0B2C01A78
:1004C0002CFA01F3D11A914311EAC311E6D1704716
:1004D000704770477047704710B500F0A3FA006886
:1004E00010BD10B5044600F09DFA046010BD2DE962
:1004F000F0470D4699469246044600F124080168EB
:10050000880604D5E06921F01001216000E0012097
:10051000A84201DD471B00E00027A1697A1902EB20
:100520000900081AA0612078C00602D42046AFF363
:100530000080002608E0D4E901211AF8060090475F
:10054000206A401C761C20624E45F4DB2078C006F1
:100550000AD52046AFF3008006E0D4E9012130201F
:100560009047206A401C2062381EA7F10107F4DC86
:1005700007E0D4E9012118F805009047206A401CE3
:100580002062281EA5F10105F3DC2046AFF30080B0
:100590002078000602D50220BDE8F0870120FBE7A5
:1005A00070472DE9FF4F0C461E464FF0FF378BB0CA
:1005B000D2E90001DDF860800A908A46C1F30A554D
:1005C00005B93D46002108464FF00000BAF1000F82
:1005D00000F4400005DA00EB80004FF4400101EA2E
:1005E00050004FEA9059B9F1010F00DDB9460A9861
:1005F00050EA4A000ED044F61050A5F2FF354543AC
:100600002F14B8F1000F1ED07542291E1EDDC9F14E
:1006100000021CE0B8F1010F4FF0000001D03021C2
:1006200003E0F24305E02154401CB042FBDB3046BE
:100630000022002121540B99C1F80880C1E9002053
:100640000FB0BDE8F08FBD1B6D1CDEE74A4600DA37
:10065000694206A800F070FA06AB93E8070003AB06
:1006600083E8070050460A9900F007FB8DE8070071
:10067000A0F500501F3800900398002D09DD42F2CC
:100680001F014A46084403A90390684600F066FD2E
:1006900008E0A0F500504A461F3803A903906846B9
:1006A00000F070FD8DE807000004000C03D04FF04F
:1006B000FF30410800E01046B8F1000F03D00022DF
:1006C000009215461EE0751E05D400F0AFF93032D9
:1006D00062556D1EF9D5B3460122084302D00022AF
:1006E0007F1C04E02078302801D100227F1E002AE0
:1006F000099786D01DE0112D07DA00F097F9303206
:1007000062556D1C50EA0102F5D1084302D00098F1
:10071000C8B10EE00021681E05E0235C625C6354F2
:100720002254401E491C8142F7DBAB46A81B401EE9
:100730000990002004F80B000B98099AC0F8088073
:10074000C0E9002B7CE711264FF0000859E72DE99E
:10075000F04F88460446D21D22F0070191B0D1E93E
:100760000001CDE90A0102F0CFFA02460B98C00F52
:1007700001D02D2007E02068810701D52B2002E061
:10078000202101EAC000032A099001D0072A05DBD5
:1007900003464146204600F08FF90BE120788006A1
:1007A00001D5E06900E00620B8F1650F814606D06A
:1007B000B8F1660F18D0B8F1670F70D131E00020A2
:1007C000B9F1110F009001DB112301E009F10103E0
:1007D0000AAA01A90CA8FFF7E4FEDDE90C700026C7
:1007E00009F10105834647E001204B4600904FF098
:1007F00000470AAA01A90CA8FFF7D3FEDDE90DB056
:100800000C995D46002610B909F101000D18B9EBED
:10081000050003D4C0F1FF3609F10105A5EB09007D
:100820002BE0B9F1010F01DA4FF001090020B9F115
:10083000110F0090484601DD112300E003460AAA8B
:1008400001A90CA8FFF7ADFEDDE90C704D460026AE
:100850008346207800070AD4AB4500DA5D4601A83C
:10086000012D04DD411911F8011C302907D04F4535
:1008700002DA17F1040F04DA012082460FE06D1E40
:10088000EEE7002F02DCED1B3E4403E0781CA8429B
:1008900000DD7D1CB81B00F1010A4FF000472078F5
:1008A000000703D4AA4501DB4FF0FF3A0021B7F15E
:1008B000004F0DF143088DF8431024D002202B2364
:1008C000002F01DA7F422D230A21021EA0F1010030
:1008D00000DC5FB197FBF1FC97FBF1F201FB1C7CA4
:1008E00017460CF1300C08F801CDEEE7A8F1010035
:1008F00003702188090501D5452100E06521A0F19B
:10090000010800F8011C09980FA9A1EB0807FF1DB9
:1009100000B10120411901EBEA70A1693844081ABD
:10092000401EA0612078C00602D42046AFF30080AC
:10093000099828B1D4E901219047206A401C20621F
:100940002078C00622D52046AFF300801EE0002E9E
:1009500004DBB34502DD01A8805D00E03020D4E96E
:1009600001219047206A401C2062761CAAF10100F8
:100970005FEA000A0AD100F051F8C0680168405CE3
:10098000D4E901219047206A401C2062281EA5F16D
:100990000105DCDC07E0D4E9012118F8010B9047E0
:1009A000206A401C2062381EA7F10107F3DC2046B4
:1009B000AFF30080032011B043E6000001694A1C38
:1009C00002610878704700B58FB0CDE90131002190
:1009D000059105497944CDE9031011466846FFF7B2
:1009E00073FC0FB000BD0000E5FFFFFF0A6802F8CE
:1009F000010B0A6070470000074B70B50D467B4441
:100A0000FFF7E1FF0446284600F004F910B14FF06B
:100A1000FF3070BD204670BD23280000004870479D
:100A2000A80C002000487047880C002030B5B0F1B9
:100A30000A024FEA900E71F100034EEA817EB0EB9C
:100A40000E0061EB91014FEA101E4EEA017E10EBA1
:100A50000E0041EB11114FEA102E4EEA016E10EB21
:100A60000E0041EB11214FEA104E4EEA014E10EB01
:100A70000E0041EB1141401841F100014FEAD00056
:100A800040EA41704FEAD10110EB80054FEA810442
:100A900044EA907444EB01046D1944EB0404521BC6
:100AA000A3414FF0000348BF0A3200D530BD401CBF
:100AB00041F1000130BD00002DE9F0411F46044620
:100AC00003260168072A01F4006004DB08B116A5BB
:100AD00005E016A503E008B115A500E015A521F075
:100AE00010002060A069C01EA0610FB1401EA0616F
:100AF0002046AFF300804FB1D4E90121384690473A
:100B0000206A401C2062C01C206206E0206AFAE7CE
:100B1000D4E9012115F8010B9047761EF8D2204642
:100B2000AFF30080BDE8F0814E414E006E616E0073
:100B3000494E4600696E66002DE9F047814616462B
:100B40008AB0334878440DC88DE80D0030487844A9
:100B5000801C03AC0DC884E80D0041F69B300844AE
:100B6000372190FBF1F290FBF1F5A5F1800501FB37
:100B700012041B3C02D56442012000E00020DFF893
:100B800090A080460027FA44AAF1BE0A0DE0E007D3
:100B900009D03246684607EB47010AEB810100F0B5
:100BA000F1FA8DE8070064107F1C002CEFD1184F7C
:100BB0007F44AC3F18E0E80714D007EB04100DF1B8
:100BC000180A90E80E008AE80E00C068F04201D1D1
:100BD00098190890324606A903A800F0D3FA03AB8F
:100BE00083E807006D10641C002DE4D1324669468D
:100BF000B8F1000F03A802D000F0B0FA01E000F055
:100C0000C1FAC9E90001C9F808200AB0BDE8F087B7
:100C1000ECA10000007B00F08000704700487047A6
:100C2000880C00207546FFF7F9FFAE4605006946BF
:100C3000534620F00700854618B020B5FFF7E4FAC8
:100C4000BDE820404FF000064FF000074FF00008CD
:100C50004FF0000B21F00701AC46ACE8C009ACE84E
:100C6000C009ACE8C009ACE8C0098D46704704462D
:100C7000AFF300802046FFF7B2FA5FEA400C08BFEE
:100C800091F0000F4FEA8C234FEAC12243EA515101
:100C90004FEA1C5018BF00F5F0404FEA300018BF73
:100CA00041F000415FEA6C5C00F02980BCF1FF3F3D
:100CB00008BF40F080407047130C06BF12044FF08D
:100CC000100C4FF0000C130E04BF12020CF1080CB4
:100CD000130F04BF12010CF1040C930F04BF920018
:100CE0000CF1020CD30F04BF52000CF1010C1146A1
:100CF0004FF00002A0F11F00A0EB0C00704711F0B4
:100D0000004F08BF704731F000413FF4D5AF0B0CE6
:100D100006BF09044FF0100C4FF0000C0B0E04BF7F
:100D200009020CF1080C0B0F04BF09010CF1040CB3
:100D30008B0F04BF89000CF1020CCB0F04BF4900DC
:100D40000CF1010CCCF12003A0EB0C0022FA03F310
:100D500002FA0CF241EA030100F10100704720F0B1
:100D60007F4C80EA030023F07F47ACEB070303F5D9
:100D70007C5300F0004003F1FF032DE980494FEA66
:100D8000154B09B44FEA144325EA0B4E24EA0348F5
:100D90000FF2042606EB132749083E785FEA320279
:100DA00003FB0667C7F5000707FB06F64FEA543753
:100DB0004FEAD64606F1020607FB066CCCF1005C52
:100DC0004FEA1C472CEA074C07FB06F40CFB06F520
:100DD00004EB15464FEA961634BF00204FF0004052
:100DE0004FEAD13706FB07FC4FEA1C4C0CFB0BF714
:100DF000D21B03FB0CF761EB07010CFB0EF7B0EB0A
:100E0000074072EB17420CFB08F734BFA2EB074216
:100E1000B2EB074261EB17414FEA0C444FEA9107EE
:100E200006FB07FC4FEA1C4C0CFB0BF7B0EBC74072
:100E300072EB573203FB0CF734BFA2EBC742B2EBA5
:100E4000C74261EB57310CFB0EF7B0EBC70072EBFA
:100E500057720CFB08F734BFA2EBC702B2EBC70214
:100E600061EB5771039F4FEA816141EA921104EBF4
:100E7000CC044FEAD1374FEA826206FB07FC42EA14
:100E800090124FEA80604FEA1C4C0CFB0BF7D21B10
:100E900003FB0CF761EB07010CFB0EF7B0EB07400F
:100EA00072EB17420CFB08F734BFA2EB0742B2EB20
:100EB000074261EB17414FEA8C554FEA910704EB6B
:100EC0009C2406FB07FC4FEA1C4C0CFB0BF7B0EB19
:100ED000C74072EB573203FB0CF734BFA2EBC7429B
:100EE000B2EBC74261EB57310CFB0EF7B0EBC7001A
:100EF00072EB57720CFB08F734BFA2EBC702B2EBE0
:100F0000C70261EB577115EB4C254FEA816141EA4D
:100F100092114FEA82624FEAD13742EA901206FB01
:100F200007FC44F100044FEA80604FEA1C4C0CFBC4
:100F30000BF7D21B03FB0CF761EB07010CFB0EF761
:100F4000B0EB074072EB17420CFB08F734BFA2EB83
:100F50000742B2EB074261EB174115EB1C154FEA54
:100F6000813141EA92414FEA823242EA90424FEAAD
:100F700080304FEA0C7644F1000448EA03434EEA1D
:100F80000B484FF0000EB2EB080C71EB030724BFC7
:100F9000624639464EEB0E0E4FF0000B00185241E0
:100FA00049414BEB0B0BB2EB080C71EB03077BF1E8
:100FB000000B24BF624639464EEB0E0E4FF0000B7D
:100FC0000018524149414BEB0B0BB2EB080C71EB93
:100FD00003077BF1000B24BF624639464EEB0E0E31
:100FE00051EA020718BF46F0010616EB0E7655F1DE
:100FF000000254F1000103D5BDE88901BDE8008875
:10100000BDE88901BDE80048B619524141EB010134
:10101000A3F10103704780807F7E7D7C7B7A7978A5
:10102000777676757473727171706F6E6E6D6C6CAD
:101030006B6A6A696868676666656464636362614F
:101040006160605F5F5E5E5D5D5C5C5B5B5A5A59D0
:10105000595858575756565555555454535352523C
:101060005251515050504F4F4F4E4E4D4D4D4C4C94
:101070004C4B4B4B4A4A4A494949484848474747DD
:10108000474646464545454444444443434343421A
:10109000424242414141002B26D4770021D01CB569
:1010A0004FEA370703B44FF010004FF010014FF034
:1010B00000000FBCBDE810400BF1010BBBF1010FAC
:1010C00008BF5FEA170722BF12F1010211F1010107
:1010D0004FF0004143F1000300F0004043EA0000FC
:1010E0007047F9D35708DAE746EA064613F1400F8E
:1010F0004FEA16461FDD13F1200FDFBF16430A46E5
:10110000002120335B42C8D0C3F1200746EA0646DF
:1011100002FA07F74FEA164646EA0706C3F1200728
:1011200022FA03F201FA07F721FA03F14FF0000364
:1011300042EA0702B1E746EA020646EA06464FEAF5
:10114000164646EA0106BCBF46EA0646360C4FF094
:1011500000034FF000024FF000019EE72DE9C04868
:10116000934630B491E8380007C831EA400C48BFD4
:1011700034EA430C03D5FFF7F2FDFFF78CFFF0BC18
:10118000BDE800882DE9C048934630B491E83800A6
:1011900007C810F0804F08BF13F0804F03D100F054
:1011A00005F8FFF778FFF0BCBDE8008820F07F4726
:1011B00080EA030023F07F4C07EB0C03A3F57C537C
:1011C00000F00040A3F1FE0392F0000F00F0B380A6
:1011D00095F0000F00F077802DE901494FEA1140AA
:1011E0004FEA144621EA004800FB06FC24EA0647C1
:1011F00008FB06F607FB08F800FB07F718EB0648A4
:101200004CEB164C4FEA124B18EB07484FEA1546C9
:101210004CEB174022EA0B4E0BFB06FC25EA064777
:101220000EFB06F607FB0EFE0BFB07F71EEB064E4A
:101230004CEB164C4FF000061EEB074E4CEB174BD9
:1012400018EB0B0840F1000018EB0E0B58EB0008F0
:1012500040F100008F1A4FF000013CBFC943661BEC
:1012600014BFB5EB040C00213CBFC943F61B4FEA89
:1012700017444EEA8E0E27EA04454FEA1C4704FB4A
:1012800007622CEA074C05FB07F70CFB05F604FB8D
:101290000CFC16EB074642EB174216EB0C4642EBF2
:1012A0001C421BEB060658EB0202414146EA9E0631
:1012B00001D5BDE80189B619524141EB0101A3F105
:1012C0000103BDE801894FEA14454FEA114724EABA
:1012D000054621EA074C05FB07F406FB07F70CFB64
:1012E00006F105FB0CFC11EB074144EB17444FEAF8
:1012F000124711EB0C4144EB1C4422EA074C05FB5E
:1013000007F206FB07F70CFB06F605FB0CFC16EBD9
:10131000074642EB174216EB0C4642EB1C456A1897
:1013200054F1000148BF7047B619524141EB010129
:10133000A3F10103704795F0000F37D04FEA114237
:101340004FEA144721EA024624EA074C02FB07F160
:1013500006FB07F70CFB06F402FB0CFC14EB07443E
:1013600041EB17414FEA154714EB0C4441EB1C418C
:1013700025EA074C02FB07F506FB07F70CFB06F610
:1013800002FB0CFC16EB074645EB174516EB0C462B
:1013900045EB1C42121951F1000148BF7047B619C4
:1013A000524141EB0101A3F1010370474FEA14459B
:1013B0004FEA114724EA054621EA074C05FB07F1ED
:1013C00006FB07F70CFB06F24FF0000605FB0CFCD2
:1013D00012EB074241EB174112EB0C4251EB1C415F
:1013E00048BF7047921841EB0101A3F10103704718
:1013F00000BFFEE70848006800F0020050B101207D
:101400000649087000BF0448406840F002000249E5
:10141000486000BF70470000000002403900002013
:1014200030B590F840500124AC40C56B6C60046846
:1014300063604468102C04D10468A2600468E16011
:1014400003E00468A1600468E26030BD70470000FA
:1014500070B50446B3F5804F13D1D1E9000540EAD9
:1014600005108D6840EA05208D6928438D8940EA82
:10147000054054F82250064E3540284344F82200D7
:1014800003E06FF0704044F82200002070BD0000BF
:101490000000F0CF70B50246086852F8200020F036
:1014A00001000E6842F826008868082801D1402310
:1014B00000E00023486818438E683043CE6830430C
:1014C0000E6930434E693043CE6930430E6A304373
:1014D0004E6A30438E6A3043CE6A30430E6B40EA28
:1014E000060488690443486B0443074D45F480654E
:1014F00045F4E025086852F82000A84320430E6810
:1015000042F82600002070BD7FFB080010B503469E
:10151000D1E9000440EA04108C6840EA04208C8978
:1015200040EA0444088A401E44EA0054087D801EB4
:1015300044EA00608C692043541C53F8244004F0B2
:1015400040442043541C43F82400002010BD0146B1
:10155000002291F82100022808D00420886300BFEF
:10156000002081F8200000BF012070470868006853
:1015700020F00E000B6818600868006820F0010079
:101580000B68186091F8403001209840CB6B586090
:10159000012081F8210000BF002081F8200000BF59
:1015A0001046E2E770B50446002594F821000228B1
:1015B00003D00420A0630125C1E02068006820F06A
:1015C0000E00216808602068006820F00100216892
:1015D00008605C492068884252D95A4978392068A5
:1015E000884201D1012047E0564964392068884289
:1015F00001D1102040E0534950392068884201D180
:10160000801539E04F493C392068884201D1801467
:1016100032E04C4928392068884202D14FF48030AA
:101620002AE0484914392068884202D14FF48010DA
:1016300022E044492068884201D140041CE042492C
:101640002068884201D1012016E03F49143120680A
:10165000884201D110200FE03B49283120688842A0
:1016600001D1801508E038493C312068884201D119
:10167000801401E04FF480303349091F086051E0C5
:10168000304978392068884201D1012047E02D494E
:1016900064392068884201D1102040E0294950393E
:1016A0002068884201D1801539E026493C392068FC
:1016B000884201D1801432E02249283920688842CA
:1016C00002D14FF480302AE01E4914392068884244
:1016D00002D14FF4801022E01A492068884201D1DB
:1016E00040041CE018492068884201D1012016E01E
:1016F000154914312068884201D110200FE01249A9
:1017000028312068884201D1801508E00E493C311B
:101710002068884201D1801401E04FF480300949EB
:1017200080394860012084F8210000BF002084F83F
:10173000200000BF606B10B12046616B88472846CF
:1017400070BD0000800002400804024001460022F3
:1017500009B9012070471E4B086898420BD21D4BF7
:101760000868C01A1423B0FBF3F08000086419481D
:101770000838C8630AE0164B0868C01A1423B0FB87
:10178000F3F08000086412480838C863022081F82A
:1017900021000868026843F6F0708243D1E9010332
:1017A0001843CB6818430B6918434B6918438B697E
:1017B0001843CB691843024308680260002088631D
:1017C000012081F82100002081F8200000BFC1E73E
:1017D00008040240080002402DE9F04104460D468D
:1017E00016461F464FF0000800BF94F8200001285D
:1017F00002D10220BDE8F081012084F8200000BF62
:1018000094F8210001282CD1022084F82100002026
:10181000A0632068006820F00100216808603B4652
:10182000324629462046FFF7FBFDE06A30B12068CA
:10183000006840F00E00216808600BE02068006836
:1018400020F00400216808602068006840F00A0069
:10185000216808602068006840F001002168086085
:1018600006E000BF002084F8200000BF4FF002080F
:101870004046BFE72DE9F847024600239C467BE13E
:101880004FF0010808FA03F4D1F8008008EA0400D8
:10189000A0427DD1DFF8F4A2D1F80480A8EB0A09B8
:1018A000D0453AD014DCB8F1030F50D009DCB8F1C0
:1018B000000F31D0B8F1010F1CD0B8F1020F49D19F
:1018C00020E0B8F1110F18D0B8F1120F42D11EE08C
:1018D000B9F5881F25D006DCB9F5803F20D0B9F5D1
:1018E000801F37D11AE0B9F5001F18D0B9F5041FD1
:1018F00030D117E0D1F80CC02DE0D1F80C8008F100
:10190000040C28E0D1F80C8008F1080C23E0D1F891
:101910000C8008F10C0C1EE000BF00BF00BF00BF30
:1019200000BF00BFD1F80880B8F1000F02D14FF01E
:10193000040C0BE0D1F80880B8F1010F03D14FF08F
:10194000080C146102E04FF0080C546103E04FF002
:10195000000C00E000BF00BFFF2801D8904601E066
:1019600002F104084646FF2802D84FEA830803E044
:10197000A3F108084FEA88084746D6F800804FF0E0
:101980000F0909FA07F928EA09080CFA07F900E033
:101990007AE048EA0908C6F80080D1F8048008F027
:1019A0008058B8F1805F6FD100BFDFF8E481D8F8CC
:1019B000188048F00108DFF8D891C9F81880C846A7
:1019C000D8F8188008F00108CDF8008000BF00BFEB
:1019D0004FEAB9384FEA930958F829504FEA83780B
:1019E0004FEA18794FF00F0808FA09F825EA0805B8
:1019F000DFF8A081424502D14FF0000824E0DFF873
:101A00009881424502D14FF001081DE0DFF88C813A
:101A1000424502D14FF0020816E0DFF884814245CA
:101A200002D14FF003080FE0DFF87881424502D180
:101A30004FF0040808E0DFF87081424502D14FF012
:101A4000050801E04FF006084FEA83794FEA19795B
:101A500008FA09F848EA0505DFF850814FEA9309CA
:101A600048F82950D1F8048008F48038B8F5803F50
:101A70000BD1DFF83C81D8F8008048EA0008DFF895
:101A80003091C9F800800AE075E0DFF82481D8F8C9
:101A9000008028EA0008DFF81891C9F80080D1F822
:101AA000048008F40038B8F5003F0ED1DFF800815B
:101AB00008F10408D8F8008048EA0008DFF8F09040
:101AC00009F10409C9F800800DE0DFF8E48008F1AD
:101AD0000408D8F8008028EA0008DFF8D49009F15B
:101AE0000409C9F80080D1F8048008F48018B8F51A
:101AF000801F0ED1DFF8B88008F10808D8F8008000
:101B000048EA0008DFF8A89009F10809C9F8008040
:101B10000DE0DFF89C8008F10808D8F8008028EA7A
:101B20000008DFF88C9009F10809C9F80080D1F8A5
:101B3000048008F40018B8F5001F0ED1DFF870809B
:101B400008F10C08D8F8008048EA0008DFF8609037
:101B500009F10C09C9F800800DE0DFF8548008F1A4
:101B60000C08D8F8008028EA0008DFF8449009F152
:101B70000C09C9F800805B1CD1F8008028FA03F832
:101B8000B8F1000F7FF47CAEBDE8F88700001110BB
:101B90000010024000080140000C0140001001400C
:101BA0000014014000180140001C014008000140E1
:101BB00000040140024693680B400BB1012000E095
:101BC000002070470AB1016101E00B040361704716
:101BD00001480068704700002400002003480068A6
:101BE000034909780844014908607047240000202F
:101BF0002C00002010B50848006840F0100006498D
:101C00000860052000F080F80F2000F007F800F0D1
:101C10002BF8002010BD00000020024070B50446E3
:101C20000E4800784FF47A71B1FBF0F00C49096866
:101C3000B1FBF0F5284600F05FFC08B1012070BD53
:101C4000102C07D200222146501E00F01EF8054835
:101C5000046001E00120F2E70020F0E72C00002002
:101C60001400002028000020704701460846002884
:101C700009DB00F01F0301229A4043099B0003F196
:101C8000E023C3F8002100BF70472DE9F05F8046D4
:101C90000D461646002701F05FF8074639462A46EA
:101CA000334601F00700C0F1070ABAF1040F02D968
:101CB0004FF0040A01E0C0F1070AD14600F1040A1E
:101CC000BAF1070F02D24FF0000A01E0A0F1030AB7
:101CD000D4464FF0010A0AFA09FAAAF1010A0AEAFF
:101CE000020A0AFA0CFA4FF0010B0BFA0CFBABF1EB
:101CF000010B0BEA030B4AEA0B042146404601F0B4
:101D000033F8BDE8F09F000000BF00F00702064B6B
:101D100019684FF6FF031940044B0B4343EA0221B5
:101D2000014B196000BF70470CED00E00000FA05A0
:101D300070B504460D460CB9012070BD5A480068C4
:101D400000F00700A8420ED25748006820F00700B4
:101D50002843554908600846006800F00700A8427B
:101D600001D00120E9E7207800F0020002281DD10F
:101D7000207800F00400042805D14C48406840F465
:101D8000E0604A494860207800F00800082805D142
:101D90004648406840F460504449486043484068C1
:101DA00020F0F000A168084340494860207800F026
:101DB000010078B36068012806D13C48006800F44F
:101DC000003090B90120B8E76068022806D1374892
:101DD000006800F0007040B90120AEE733480068A9
:101DE00000F0020008B90120A7E73048406820F061
:101DF0000300616808432D494860FFF7E9FE064685
:101E000009E0FFF7E5FE801B41F28831884202D9E4
:101E1000032092E707E02548406800F00C00616865
:101E2000B0EB810FEDD12048006800F00700A84218
:101E30000ED91D48006820F0070028431A490860A1
:101E40000846006800F00700A84201D0012074E7AE
:101E5000207800F00400042807D11448406820F4DA
:101E6000E060E168084311494860207800F008000C
:101E7000082808D10D48406820F46050216940EAE4
:101E8000C1000A49486000F03FF808494968C1F3B9
:101E90000311074A515CC8400649086006480068BB
:101EA000FFF7BCFE002048E700200240001002407F
:101EB000C57C0008140000202800002001480068AC
:101EC000704700001400002000B5FFF7F7FF044939
:101ED0004968C1F30221034A515CC84000BD0000BB
:101EE00000100240D57C000800B5FFF7E7FF044969
:101EF0004968C1F3C221034A515CC84000BD0000DB
:101F000000100240D57C0008F0B585B00FF26C0CD3
:101F10009CE8E01001A8A0E8E0101CA52D68009541
:101F200000210022002300240020194D696801F0DF
:101F30000C05F5B1042D02D0082D19D101E015488A
:101F400019E001ADC1F38346AC5D01F4803555B1B4
:101F50000F4D6D68C5F340451DF805200D4D6543D7
:101F6000B5FBF2F302E00C4D04FB05F3184602E06A
:101F700000BF084800BF00BF05B0F0BD0203040564
:101F8000060708090A0B0C0D0E0F101001020000C5
:101F90000010024000127A0000093D00F8B5044626
:101FA0000CB90120F8BD207800F00100002878D09D
:101FB000F848406800F00C0004280CD0F548406850
:101FC00000F00C00082811D1F248406800F480307D
:101FD000B0F5803F0AD1EF48006800F400300028D7
:101FE0005FD0606800285CD10120DBE700BF60683B
:101FF000B0F5803F06D1E748006840F48030E549FD
:10200000086028E0606858B9E248006820F4803031
:10201000E04908600846006820F4802008601AE063
:102020006068B0F5A02F0BD1DA48006840F480203A
:10203000D84908600846006840F4803008600AE02B
:10204000D448006820F48030D2490860084600680F
:1020500020F48020086000BF606888B1FFF7B8FDF9
:10206000054606E0FFF7B4FD401B642801D90320B4
:1020700098E7C848006800F400300028F2D010E06B
:10208000FFF7A6FD054606E0FFF7A2FD401B64280A
:1020900001D9032086E7BF48006800F4003000281B
:1020A000F2D1207800F00200022857D1B9484068E8
:1020B00000F00C0050B1B748406800F00C00082850
:1020C00018D1B448406800F4803098B9B14800682D
:1020D00000F0020020B12069012801D0012061E751
:1020E000AC48006820F0F800616940EAC100A949E5
:1020F000086033E02069E8B10120A7490860FFF7D4
:1021000067FD054606E0FFF763FD401B022801D985
:10211000032047E79F48006800F002000028F2D043
:102120009C48006820F0F800616940EAC1009949C4
:10213000086013E0002098490860FFF749FD054654
:1021400006E0FFF745FD401B022801D9032029E7DF
:102150009048006800F002000028F2D1207800F0DA
:10216000080008282DD1A069B8B101208B4908606A
:10217000FFF72EFD054606E0FFF72AFD401B02286B
:1021800001D903200EE78348406A00F002000028CE
:10219000F2D0012000F018FC13E000207F49086015
:1021A000FFF716FD054606E0FFF712FD401B02286B
:1021B00001D90320F6E67748406A00F002000028C3
:1021C000F2D1207800F00400042873D10027714870
:1021D000C06900F0805070B900BF6E48C06940F01F
:1021E00080506C49C8610846C06900F0805000907A
:1021F00000BF00BF01276A48006800F48070B0B9D2
:102200006748006840F4807065490860FFF7E0FCAB
:10221000054606E0FFF7DCFC401B642801D90320DB
:10222000C0E65F48006800F480700028F2D000BF6C
:10223000E068012806D15748006A40F0010055497E
:10224000086227E0E06858B95248006A20F00100AF
:10225000504908620846006A20F00400086219E04C
:10226000E06805280BD14B48006A40F0040049495A
:1022700008620846006A40F0010008620AE045482A
:10228000006A20F00100434908620846006A20F015
:102290000400086200BFE068A0B1FFF799FC0546A2
:1022A00009E0FFF795FC401B41F28831884202D9D2
:1022B000032077E622E03748006A00F00200002899
:1022C000EFD012E0FFF784FC054608E0FFF780FC42
:1022D000401B41F28831884201D9032062E62D4833
:1022E000006A00F002000028F0D1012F05D1294832
:1022F000C06920F080502749C86100BFE069C8B3B9
:102300002448406800F00C00082860D0E0690228EA
:1023100048D1002020490866FFF75AFC054606E030
:10232000FFF756FC401B022801D903203AE6194862
:10233000006800F000700028F2D1206AB0F5803FFC
:1023400007D11448406820F40030A16808431149BF
:102350004860D4E9080108430E49496821F4741122
:1023600008430C49486001200B490866FFF730FC20
:10237000054607E03DE0FFF72BFC401B022801D992
:1023800003200FE60348006800F000700028F2D038
:102390002FE0000000100240000042428004424250
:1023A00000700040002014490866FFF711FC054644
:1023B00006E0FFF70DFC401B022801D90320F1E5E0
:1023C0000E48006800F000700028F2D111E0E069CA
:1023D000012800D1E6E50948466806F48031206A04
:1023E000814204D106F47011606A814201D001205B
:1023F000D8E50020D6E5000000004242001002406F
:1024000070B504460E4615461CB1A069B0F5807F34
:1024100001D1012070BD94F8410028B9002084F852
:102420004000204600F020F804F108012068FFF782
:1024300031F83146A2682068FFF768F82946236B17
:10244000D4E90102FFF704F8A168206850F82100E0
:1024500040F00100A268216841F82200012084F8C0
:1024600041000020D6E7000010B586B0044600BF4A
:102470001E48406940F480701C4948610846406924
:1024800000F48070019000BF00BF00BF0846806963
:1024900040F0200088610846806900F0200001902B
:1024A00000BF00BF00BF0846806940F0400088615F
:1024B0000846806900F04000019000BF00BF4CF268
:1024C00003700290022003900120049003200590E5
:1024D00002A90748FFF7CEF94FF68070029002A9D3
:1024E0000448FFF7C7F906B010BD00000010024015
:1024F000001401400018014070B504462546681ECE
:10250000B0F1807F01D301200FE0681E4FF0E02181
:1025100048610F214FF0FF3000F026FC00204FF003
:10252000E021886107200861002070BD70B5044675
:10253000002520684069C0F3C01594F839002128AF
:102540000ED16DB12068406920F08000216848619B
:10255000206B10B1206BFEF7FAFF204600F0C2FAA4
:1025600020684069C0F3801594F83A0022280ED103
:102570006DB12068406920F0400021684861606BBF
:1025800010B1606BFEF7E3FF204600F08BFA0020ED
:1025900070BD70472DE9F047044620680568206843
:1025A000C668206847694FF00008C14605F00F086B
:1025B000B8F1000F0AD105F0200038B106F0200074
:1025C00020B1204600F098FABDE8F087B8F1000F7E
:1025D00071D007F0010018B906F4907000286AD095
:1025E00005F0010030B106F4807018B1E06B40F0E6
:1025F0000100E06305F0040030B107F0010018B1FC
:10260000E06B40F00200E06305F0020030B107F03B
:10261000010018B1E06B40F00400E06305F0080031
:1026200048B106F0200010B907F0010018B1E06BC6
:1026300040F00800E063E06B68B305F0200028B1CB
:1026400006F0200010B1204600F056FA20684069DC
:10265000C0F38019E06B00F0080010B9B9F1000F69
:1026600022D0204600F01EFA2068406900F04000A9
:10267000B0B12068406920F0400021684861606B7B
:1026800050B11848616B4863606BFEF78BFF10B167
:10269000606B416B88470CE02046FFF77AFF08E04B
:1026A0002046FFF776FF04E02046FFF772FF002088
:1026B000E06389E7FFE705F0800030B106F08000B5
:1026C00018B1204600F0E6FA7EE705F0400030B190
:1026D00006F0400018B1204600F0F4F974E700BF9E
:1026E00072E70000FD29000810B504460CB901206E
:1026F00010BDA06900B100E000BF94F8390028B90E
:10270000002084F83800204600F028F8242084F8BF
:1027100039002068C06820F400502168C860204655
:1027200000F03AFA2068006920F4904021680861BE
:102730002068406920F02A00216848612068C0684C
:1027400040F400502168C8600020E063202084F835
:10275000390084F83A000020CAE7000010B586B0BE
:1027600004462849206888424AD100BF00BF264855
:10277000806940F00400244988610846806900F0BF
:102780000400019000BF00BF00BF00BF00BF0846AB
:10279000806940F0040088610846806900F0040008
:1027A000019000BF00BF00BF00BF00BF08468069A6
:1027B00040F4804088610846806900F480400190C0
:1027C00000BF00BF00BF4815029002200390012007
:1027D00004900320059002A90C48FFF74BF84FF432
:1027E000806002900020039002A90848FFF742F899
:1027F0002520FFF73AFA032211462520FFF745FA74
:1028000006B010BD00380140001002400008014031
:1028100010B5034693F83A0020282FD101B10AB928
:10282000012010BD00BF93F83800012801D102201B
:10283000F7E7012083F8380000BF99629A85DA85AE
:102840000020D863222083F83A0000BF002083F8DC
:10285000380000BF1868C06840F480701C68E060F1
:102860001868406940F001001C6860611868C06821
:1028700040F020001C68E0600020D2E70220D0E792
:1028800010B504462049206888423BD11F48008883
:1028900000F4004088BB1D48008800F4804070B1FF
:1028A0001B4800780A2803D000201849088024E03B
:1028B0001648008840F40040144908801DE0144880
:1028C00000780D2806D11148008840F480400F4957
:1028D000088012E00E4800780C490988C1F30D0108
:1028E0000C4A505409480088401C08490880084692
:1028F0000088C72801DD002008800122044906481D
:10290000FFF786FF10BD00000038014020000020C6
:1029100022000020E40A0020AC0B0020F7B504469A
:10292000154694F8390020283DD1019800B10DB921
:102930000120FEBD00BF94F83800012801D102201B
:10294000F7E7012084F8380000BF01982062A584D1
:10295000E5840020E063212084F839001348216BCE
:1029600088621348216BC8621248216B08630020FB
:10297000216B486301AE23681A1D31682B46206B1A
:10298000FEF72AFF6FF040002168086000BF0020BA
:1029900084F8380000BF2068406940F0800021685A
:1029A00048610020C5E70220C3E70000612A000853
:1029B000972A0008112A00087047704700BFFEE7F9
:1029C00000BFFEE77047704708B508490968C908A5
:1029D0004FF47A72B1FBF2F14143009100BF00BFA6
:1029E00000994A1E00920029F9D108BD1400002068
:1029F000704710B5FFF7F2F810BD704770B5054687
:102A00006C6A0020E085E0842046FFF7C2FD70BDBF
:102A100070B506460025746A20684069C0F3C01589
:102A200094F83900212805D125B10020E084204602
:102A300000F058F820684069C0F3801594F83A0017
:102A4000222805D125B10020E085204600F02AF893
:102A5000E06B40F01000E0632046FFF79AFD70BD88
:102A600070B505466C6A2868006800F0200070B9EF
:102A70000020E0842068406920F0800021684861DF
:102A80002068C06840F040002168C86002E020462D
:102A9000FFF792FF70BD70B50446656A2846FFF7E0
:102AA0008CFF70BD0168C96821F490710268D16023
:102AB0000168496921F0010102685161202180F813
:102AC0003A10704710B504462068C06820F04000F6
:102AD0002168C860202084F839002046FFF76CFF89
:102AE000002010BD0168C96821F0C0010268D160F2
:102AF000202180F83910704770B5044694F83A00E8
:102B0000222847D1A068B0F5805F0CD1206950B968
:102B10000025A66A20684068C0F308003080A06ADB
:102B2000801CA06215E0A56A0026A068B0F5805F51
:102B300003D0A06828B9206918B9206840682870B7
:102B400004E02068406800F07F002870A06A401C04
:102B5000A062E08D401E80B2E085C8B92068C068E0
:102B600020F020002168C8602068C06820F48070D0
:102B70002168C8602068406920F001002168486130
:102B8000202084F83A002046FFF77AFE002070BD2E
:102B90000020FCE70220FAE770B5044621680969C5
:102BA00021F44051E2681143226811612269A16851
:102BB0001143626941EA02052168C96841F20C6269
:102BC000914329432268D1602168496921F4407109
:102BD000A2691143226851612D4A2168914202D1B4
:102BE000FFF782F901E0FFF76FF900EBC00101EB9D
:102BF000001162689200B1FBF2F100EBC00202EB3F
:102C0000001263689B00B2FBF3F26423B2FBF3F2A1
:102C100002EBC20303EB0212A1EB8201322202EBB0
:102C200001116422B1FBF2F101F0F00100EBC002EE
:102C300002EB001263689B00B2FBF3F26423B2FB69
:102C4000F3F201EB021200EBC00101EB001163682B
:102C50009B00B1FBF3F100EBC00303EB00136668CC
:102C6000B600B3FBF6F36426B3FBF6F303EBC3063F
:102C700006EB0313A1EB8301322303EB0111642361
:102C8000B1FBF3F101F00F0111442268916070BDB6
:102C900000380140014691F83900212828D1886880
:102CA000B0F5805F0BD1086948B90A6A1088C0F393
:102CB00008000B685860086A801C086205E00B6A0F
:102CC000581C086218780B685860C88C401E80B287
:102CD000C88458B90868C06820F080000B68D860C4
:102CE0000868C06840F040000B68D860002070475A
:102CF0000220FCE710B50248FFF74CFC10BD0000B5
:102D0000AC0B002000BFFEE7490050EAC12018BF0D
:102D100004204A0D18BF40F0010040F2FF72B2EBF0
:102D2000515F08BF40F00200012808BF052070472E
:102D30004100080218BF04200A0E18BF40F001002D
:102D40004FF07F4232EA010108BF40F00200012843
:102D500008BF05207047000002480068C0F3022049
:102D6000704700000CED00E010B5002804DB0A07F6
:102D7000130E054A135406E00A07140E034A00F026
:102D80000F031B1FD45410BD00E400E018ED00E059
:102D9000012104F056BF0021084604F013BC6FF077
:102DA0005E01080704F04DBF2DE9F04D0D461446B5
:102DB0004FF07F41B1EB440F9EBF4FF0FF312960D0
:102DC000BDE8F08D4FF0004040EA0421C4F3C75045
:102DD000783810F01F024A4B4FEA601CC2F12006FF
:102DE0007B44C4F3C750A0F178004FEA601003EBB6
:102DF000800053F82C3008BFD0E901C612D0D0F8BB
:102E000004C093402CFA06F73B4387680CFA02FC97
:102E100027FA06F8C06807FA02F2F0404CEA080CFC
:102E200042EA0006A3FB0132ACFB01C0A6FB016134
:102E300001EB0C068E4234BF4FF0010C4FF0000C3A
:102E4000C1186144BCF1000F02D0814202D903E0F5
:102E5000814201D2012000E00020104400F1200254
:102E60004FEA92188006CA0C40EA42304F03C5F878
:102E7000008004F0A5FC8246384604F0B9FC6FF0EF
:102E8000120104F0DEFE0746304604F0B1FC6FF09C
:102E9000250104F0D6FE83463946504604F01EFB59
:102EA000594604F01BFB00F500666FF30B06514614
:102EB000304604F01DFE394604F01AFE594604F06F
:102EC0000DFE104904F0DCFC07460F49304604F0C3
:102ED000D7FC394604F002FB07460C49304604F0A3
:102EE000CFFC394604F0FAFA14F0004F08BFBDE8F1
:102EF000F08DC8F1805180F000402960BDE8F08D70
:102F0000B47E0000DB0FC92F22AAFD290000C92FC3
:102F100030380A2801D2012070470020704700BFD6
:102F2000704700002DE9F05F04460D461049204629
:102F300004F048FB83460F480168584604F0A0FCA3
:102F400082460D4904F09CFC8146294604F0C6FAED
:102F5000804604F02FF8074608480168384604F018
:102F60008FFC064604F0F0FBC0F5AF70BDE8F09FA3
:102F70000000A04104000020D00F494000000020C4
:102F800001490860704700001800002010B5044691
:102F90004FF47A7104FB01F000F002F810BD00005C
:102FA00070B5034600224FF0E02675690D4E366875
:102FB00003FB06F44FF0E026B16910E04FF0E02685
:102FC000B06988420BD0884202D20E1A324402E025
:102FD0002E1A0E4432440146A24200D300E0EDE72F
:102FE00000BF70BD180000202DE9F8432148058876
:102FF00021480168214804F071FA81464FF0804170
:1030000004F06CFA804604F0BBFB86B21A480168F3
:103010001A4804F06DFD81464FF0804104F068FDD0
:10302000804604F0ADFB87B24FF6FF70334640F2A6
:10303000B71239460090292002F046FF03F0CAFE7D
:10304000012411E04FF478400A4E009036F8143015
:1030500004F12806B2B2A9B2761EB0B200F0B2FAFC
:10306000044830F81450641CB4F5C87FEADBBDE8AE
:10307000F88300003C000020000000200000AF4367
:1030800038B504461C4884420DD900BF1B4840692E
:1030900040F00200194948610846406900F002000A
:1030A000009000BF0DE000BF1448406940F00100EF
:1030B000124948610846406900F00100009000BFD5
:1030C00000BF00BF0E480F49086308460C4948621C
:1030D00000BF084604601020486000210848816055
:1030E0008021C16000210161416181614FF4805103
:1030F000C161FEF72BFB38BD80000240001002408A
:10310000440C0020AC0B0020F8B54FF6FF70009087
:103110004348438802880021084602F0D5FE00207B
:103120004FF4AF734FF4DC7219460090282000F082
:1031300049FA002040F259134FF4D772591D0090FC
:103140004FF4DC7000F03EFA002040F263134FF4BD
:10315000D772591F00904FF4DC7000F033FA002052
:1031600040F22623282296210090104600F02AFAE9
:103170000020A023232296210090282000F022FA8C
:103180000020A0232D2296210090282000F01AFA7A
:10319000012442E0002004EB8401282303EB810199
:1031A0008AB204EB840103EB8101009088B240F203
:1031B0006113991F00F006FA0020009004EB8400D0
:1031C000850005EBD5704010C0F5AF7083B204EBFD
:1031D0008400860006EBD6704010C0F5AF7081B257
:1031E0002B22252000F0EEF90020009004EB840053
:1031F000850005EBD570401000F5AF7083B204EB8D
:103200008400860006EBD670401000F5AF7081B2E6
:103210002B22252000F0D6F9641C142CBADBF8BD53
:10322000340C002000BF054A126802F04002002A58
:10323000F9D0C2B2014B1B1D1A6070470038014023
:1032400070B500240CE0204604F0BAFA05460648A2
:1032500001682846FFF766FE044921F81400641C43
:10326000B4F5C87FEFDB70BD080000203C000020F3
:1032700000B585B000BF00BF3648806940F040000F
:10328000344988610846806900F04000009000BF22
:1032900000BF00BF00BF00BF0846806940F040008B
:1032A00088610846806900F04000009000BF00BFC0
:1032B00000BF00BF00BF0846806940F04000886141
:1032C0000846806900F04000009000BF00BF00BFCA
:1032D00000BF00BF0846806940F0040088610846CE
:1032E000806900F00400009000BF00BF00BF102004
:1032F000019000200290012003900320049001A976
:103300001548FEF7B7FA082001900020029001202E
:1033100003900320049001A90F48FEF7ABFA0420A4
:10332000019000200290012003900320049001A945
:103330000948FEF79FFA0120019000200290022028
:1033400003900320049001A90448FEF793FA05B006
:1033500000BD0000001002400018014000080140BC
:1033600070B50446002514B101202B4908702A4885
:103370000078002834D010212848FEF71BFC78B1D3
:1033800008212648FEF716FC50B104212348FEF719
:1033900011FC28B101212248FEF70CFC01281FD1A5
:1033A0000A20FFF7F3FD00201B49087010211B487D
:1033B000FEF700FC00B9012508211848FEF7FAFBCA
:1033C00000B9022504211548FEF7F4FB00B90325D6
:1033D00001211348FEF7EEFB01281BD1042519E05B
:1033E00010210E48FEF7E6FB012813D108210B48F7
:1033F000FEF7E0FB01280DD104210848FEF7DAFBB7
:10340000012807D101210648FEF7D4FB10B901209D
:1034100001490870284670BD38000020001801409E
:103420000008014070B50446002609480588408818
:1034300045430021084603F0E1F803F0D3FA00BF4A
:1034400002E004480480761CAE42FAD370BD00004E
:10345000340C00200008006C10B5044658488471F4
:10346000002C58D1F020564908804FF4A0704880B5
:103470000846808845F21051884210D14FF43050F0
:103480004F4908814FF4285048814FF42C508881CF
:103490004FF4F07008804FF4487048801AE04848B4
:1034A000808841F6631188420DD12C20444908815F
:1034B0002B2048812A2088814FF4F07008804FF437
:1034C0004870488006E02C203D4908812A20488128
:1034D0002B2088813A48808845F21031884205D0F7
:1034E0003748808847F29671884206D14FF4A07021
:1034F000334908804FF4F07048803148808849F69D
:103500000601884258D14FF4F0702D4908804FF4DD
:103510004870488050E04FF4A07029490880F0209E
:1035200048800846808845F21051884210D14FF4F7
:103530003050234908814FF4285048814FF42C50D3
:1035400088814FF4487008804FF4F070488020E084
:103550001B48808841F66311884205D0184880884E
:1035600049F6060188420DD12C20154908812A20F0
:1035700048812B2088814FF4487008804FF4F07008
:10358000488006E02C200E4908812A2048812B2003
:1035900088810B48808845F21031884205D0084860
:1035A000808847F29671884206D14FF4F070044942
:1035B00008804FF4A0704880002002F001FF10BD89
:1035C000340C00202DE9FF4F84B081468A4600204C
:1035D000029083460698A0EB09050798A0EB0A061F
:1035E000CDF80490CDF800A0002D01DD012705E005
:1035F0000DB9002702E04FF0FF376D42002E02DDCB
:103600004FF0010806E016B94FF0000802E04FF055
:10361000FF387642B54201DD2C4600E034460020FA
:1036200003901EE0009A91B2019A90B2119A00F0B4
:103630001FF8029828440290B3440298A04205DD86
:103640000298001B0290019838440190A34504DDC4
:10365000ABEB040B0098404400900398401C80B2F0
:103660000390611C03988842DCDD08B0BDE8F08F50
:1036700070B505460E4614463146284602F0BEFF98
:1036800003F0B0F901490C8070BD00000008006C27
:1036900010B5CF2003F09AF9002003F08BF9C12078
:1036A00003F088F9302003F085F9ED2003F08EF95E
:1036B000642003F07FF9032003F07CF9122003F06B
:1036C00079F9812003F076F9E82003F07FF985206D
:1036D00003F070F9102003F06DF97A2003F06AF915
:1036E000CB2003F073F9392003F064F92C2003F0A8
:1036F00061F9002003F05EF9342003F05BF9022049
:1037000003F058F9F72003F061F9202003F052F993
:10371000EA2003F05BF9002003F04CF9002003F0ED
:1037200049F9C02003F052F91B2003F043F9C120EE
:1037300003F04CF9012003F03DF9C52003F046F9F0
:10374000302003F037F9302003F034F9C72003F0BC
:103750003DF9B72003F02EF9362003F037F9482061
:1037600003F028F93A2003F031F9552003F022F94B
:10377000B12003F02BF9002003F01CF91A2003F00C
:1037800019F9B62003F022F90A2003F013F9A22058
:1037900003F010F9F22003F019F9002003F00AF900
:1037A000262003F013F9012003F004F9E02003F0D0
:1037B0000DF90F2003F0FEF82A2003F0FBF8282073
:1037C00003F0F8F8082003F0F5F80E2003F0F2F803
:1037D000082003F0EFF8542003F0ECF8A92003F0E0
:1037E000E9F8432003F0E6F80A2003F0E3F80F209D
:1037F00003F0E0F8002003F0DDF8002003F0DAF831
:10380000002003F0D7F8002003F0D4F8E12003F003
:10381000DDF8002003F0CEF8152003F0CBF81720D8
:1038200003F0C8F8072003F0C5F8112003F0C2F830
:10383000062003F0BFF82B2003F0BCF8562003F05D
:10384000B9F83C2003F0B6F8052003F0B3F81020D7
:1038500003F0B0F80F2003F0ADF83F2003F0AAF812
:103860003F2003F0A7F80F2003F0A4F82B2003F06B
:10387000ADF8002003F09EF8002003F09BF8012033
:1038800003F098F83F2003F095F82A2003F09EF803
:10389000002003F08FF8002003F08CF8002003F0E4
:1038A00089F8EF2003F086F8112003F08FF87820D4
:1038B000FFF76CFB292003F089F810BD10B5FF203D
:1038C00003F084F8FF2003F075F8982003F072F8F5
:1038D000062003F06FF8BC2003F078F8012003F015
:1038E00069F80F2003F066F8612003F063F8FF2009
:1038F00003F060F8012003F05DF8012003F05AF8AE
:103900000B2003F057F8102003F054F8372003F091
:1039100051F8632003F04EF8FF2003F04BF8FF202E
:1039200003F048F8012003F045F8012003F042F8C5
:10393000002003F03FF8002003F03CF8FF2003F0E4
:1039400039F8522003F036F8012003F033F8002054
:1039500003F030F8402003F02DF8BD2003F036F8D6
:10396000012003F027F8232003F024F8452003F07A
:1039700021F8672003F01EF8012003F01BF8232034
:1039800003F018F8452003F015F8672003F012F84B
:10399000BE2003F01BF8002003F00CF8012003F018
:1039A00009F8AB2003F006F8602003F003F82220AA
:1039B00003F000F8222002F0FDFF222002F0FAFFBF
:1039C000222002F0F7FF222002F0F4FFC72002F0CD
:1039D000FDFF362002F0EEFFED2002F0F7FF7F2022
:1039E00002F0E8FF0F2002F0E5FFC02002F0EEFF3A
:1039F0000F2002F0DFFF0B2002F0DCFF0A2002F0B4
:103A0000D9FFFC2002F0E2FF082002F0D3FFDF2004
:103A100002F0DCFF002002F0CDFF002002F0CAFF20
:103A2000002002F0C7FF002002F0C4FF002002F0D7
:103A3000C1FF202002F0BEFFF32002F0C7FF742078
:103A400002F0B8FFB42002F0C1FF002002F0B2FF84
:103A5000002002F0AFFF002002F0ACFFF72002F0E0
:103A6000B5FF822002F0A6FFB12002F0AFFF0020D8
:103A700002F0A0FF132002F09DFF132002F09AFF36
:103A8000F22002F0A3FF802002F094FF042002F055
:103A900091FF402002F08EFF282002F08BFFC12012
:103AA00002F094FF172002F085FF882002F082FFC9
:103AB000882002F07FFF202002F07CFFE02002F04F
:103AC00085FF002002F076FF0A2002F073FF12202B
:103AD00002F070FF102002F06DFF0E2002F06AFF6E
:103AE000202002F067FFCC2002F064FF072002F0E4
:103AF00061FF062002F05EFF0B2002F05BFF0E204C
:103B000002F058FF0F2002F055FF0D2002F052FF87
:103B1000152002F04FFF102002F04CFF002002F0B1
:103B200049FFE12002F052FF002002F043FF0B208A
:103B300002F040FF132002F03DFF0D2002F03AFF9B
:103B40000E2002F037FF1B2002F034FF712002F03C
:103B500031FF062002F02EFF062002F02BFF0A2084
:103B600002F028FF0F2002F025FF0E2002F022FFB6
:103B70000F2002F01FFF152002F01CFF0C2002F0A6
:103B800019FF002002F016FF2A2002F01FFF00207C
:103B900002F010FF002002F00DFF012002F00AFFEA
:103BA000DF2002F007FF2B2002F010FF002002F0C0
:103BB00001FF002002F0FEFE032002F0FBFE1F20AA
:103BC00002F0F8FE3A2002F001FF552002F0F2FE6A
:103BD000362002F0FBFE002002F0ECFE112002F085
:103BE000F5FE7820FFF7D2F9292002F0EFFE14202D
:103BF000FFF7CCF92C2002F0E9FE10BD10B5ED2046
:103C000002F0E4FE012002F0D5FEFE2002F0D2FE1A
:103C1000EE2002F0DBFEDE2002F0CCFE212002F0DE
:103C2000C9FEF12002F0D2FE012002F0C3FEDF2027
:103C300002F0CCFE102002F0BDFEC42002F0C6FE51
:103C40008F2002F0B7FEC62002F0C0FE002002F076
:103C5000B1FEE22002F0AEFEE22002F0ABFEE22076
:103C600002F0A8FEBF2002F0B1FEAA2002F0A2FEE0
:103C7000B02002F0ABFE0D2002F09CFE002002F00E
:103C800099FE0D2002F096FE002002F093FE112016
:103C900002F090FE002002F08DFE192002F08AFE54
:103CA000002002F087FE212002F084FE002002F0B6
:103CB00081FE2D2002F07EFE002002F07BFE3D20E2
:103CC00002F078FE002002F075FE5D2002F072FE28
:103CD000002002F06FFE5D2002F06CFE002002F07A
:103CE00069FEB12002F072FE802002F063FE002027
:103CF00002F060FE8B2002F05DFE002002F05AFE12
:103D0000962002F057FE002002F054FEB22002F08E
:103D10005DFE002002F04EFE002002F04BFE02206D
:103D200002F048FE002002F045FE032002F042FEB1
:103D3000002002F03FFEB32002F048FE002002F017
:103D400039FE002002F036FE002002F033FE002093
:103D500002F030FE002002F02DFE002002F02AFECC
:103D6000002002F027FE002002F024FE002002F0D6
:103D700021FE002002F01EFE002002F01BFE0020AB
:103D800002F018FE002002F015FE002002F012FEE4
:103D9000002002F00FFE002002F00CFE002002F0D6
:103DA00009FE002002F006FE002002F003FE0020C3
:103DB00002F000FE002002F0FDFD002002F0FAFDFE
:103DC000002002F0F7FD002002F0F4FDB42002F024
:103DD000FDFD8B2002F0EEFD002002F0EBFD9620B1
:103DE00002F0E8FD002002F0E5FDA12002F0E2FD76
:103DF000002002F0DFFDB52002F0E8FD022002F015
:103E0000D9FD002002F0D6FD032002F0D3FD0020F2
:103E100002F0D0FD042002F0CDFD002002F0CAFD2A
:103E2000B62002F0D3FD002002F0C4FD002002F015
:103E3000C1FDB72002F0CAFD002002F0BBFD00204A
:103E400002F0B8FD3F2002F0B5FD002002F0B2FD07
:103E50005E2002F0AFFD002002F0ACFD642002F015
:103E6000A9FD002002F0A6FD8C2002F0A3FD002099
:103E700002F0A0FDAC2002F09DFD002002F09AFDB2
:103E8000DC2002F097FD002002F094FD702002F08B
:103E900091FD002002F08EFD902002F08BFD0020AD
:103EA00002F088FDEB2002F085FD002002F082FD8B
:103EB000DC2002F07FFD002002F07CFDB82002F043
:103EC00085FD002002F076FD002002F073FD002049
:103ED00002F070FD002002F06DFD002002F06AFD8E
:103EE000002002F067FD002002F064FD002002F0D7
:103EF00061FDBA2002F06AFD242002F05BFD002083
:103F000002F058FD002002F055FD002002F052FDA5
:103F1000C12002F05BFD202002F04CFD002002F0E9
:103F200049FD542002F046FD002002F043FDFF2031
:103F300002F040FD002002F03DFDC22002F046FDEF
:103F40000A2002F037FD002002F034FD042002F0C8
:103F500031FD002002F02EFDC32002F037FD3C2091
:103F600002F028FD002002F025FD3A2002F022FD9B
:103F7000002002F01FFD392002F01CFD002002F09D
:103F800019FD372002F016FD002002F013FD3C2041
:103F900002F010FD002002F00DFD362002F00AFDB7
:103FA000002002F007FD322002F004FD002002F0A4
:103FB00001FD2F2002F0FEFC002002F0FBFC2C2073
:103FC00002F0F8FC002002F0F5FC292002F0F2FCDF
:103FD000002002F0EFFC262002F0ECFC002002F0B2
:103FE000E9FC242002F0E6FC002002F0E3FC24209F
:103FF00002F0E0FC002002F0DDFC232002F0DAFCFD
:10400000002002F0D7FC3C2002F0D4FC002002F09B
:10401000D1FC362002F0CEFC002002F0CBFC322096
:1040200002F0C8FC002002F0C5FC2F2002F0C2FC08
:10403000002002F0BFFC2C2002F0BCFC002002F0AB
:10404000B9FC292002F0B6FC002002F0B3FC2620C7
:1040500002F0B0FC002002F0ADFC242002F0AAFC2B
:10406000002002F0A7FC242002F0A4FC002002F0B3
:10407000A1FC232002F09EFC002002F09BFCC42047
:1040800002F0A4FC622002F095FC002002F092FCF9
:10409000052002F08FFC002002F08CFC842002F04E
:1040A00089FC002002F086FCF02002F083FC002056
:1040B00002F080FC182002F07DFC002002F07AFC67
:1040C000A42002F077FC002002F074FC182002F01B
:1040D00071FC002002F06EFC502002F06BFC00200E
:1040E00002F068FC0C2002F065FC002002F062FC8B
:1040F000172002F05FFC002002F05CFC952002F02B
:1041000059FC002002F056FCF32002F053FC002082
:1041100002F050FCE62002F04DFC002002F04AFCC8
:10412000C52002F053FC322002F044FC002002F0D3
:1041300041FC442002F03EFC002002F03BFC6520E4
:1041400002F038FC002002F035FC762002F032FC50
:10415000002002F02FFC882002F02CFC002002F04E
:1041600029FCC62002F032FC202002F023FC0020B3
:1041700002F020FC172002F01DFC002002F01AFCC7
:10418000012002F017FC002002F014FCC72002F00E
:104190001DFC002002F00EFC002002F00BFC0020B1
:1041A00002F008FC002002F005FCC82002F00EFC22
:1041B000002002F0FFFB002002F0FCFB002002F0D8
:1041C000F9FB002002F0F6FBC92002F0FFFB002003
:1041D00002F0F0FB002002F0EDFB002002F0EAFB11
:1041E000002002F0E7FB002002F0E4FB002002F0D8
:1041F000E1FB002002F0DEFB002002F0DBFB0020F0
:1042000002F0D8FB002002F0D5FB002002F0D2FB28
:10421000002002F0CFFB002002F0CCFB002002F0D7
:10422000C9FB002002F0C6FB002002F0C3FBE02027
:1042300002F0CCFB162002F0BDFB002002F0BAFB1E
:104240001C2002F0B7FB002002F0B4FB212002F09A
:10425000B1FB002002F0AEFB362002F0ABFB0020E9
:1042600002F0A8FB462002F0A5FB002002F0A2FB12
:10427000522002F09FFB002002F09CFB642002F021
:1042800099FB002002F096FB7A2002F093FB0020BD
:1042900002F090FB8B2002F08DFB002002F08AFBE5
:1042A000992002F087FB002002F084FBA82002F096
:1042B00081FB002002F07EFBB92002F07BFB002096
:1042C00002F078FBC42002F075FB002002F072FBC4
:1042D000CA2002F06FFB002002F06CFBD22002F03B
:1042E00069FB002002F066FBD92002F063FB00208E
:1042F00002F060FBE02002F05DFB002002F05AFBC0
:10430000F32002F057FB002002F054FBE12002F002
:104310005DFB162002F04EFB002002F04BFB1C2040
:1043200002F048FB002002F045FB222002F042FB95
:10433000002002F03FFB362002F03CFB002002F0A0
:1043400039FB452002F036FB002002F033FB5220FF
:1043500002F030FB002002F02DFB642002F02AFB6B
:10436000002002F027FB7A2002F024FB002002F05C
:1043700021FB8B2002F01EFB002002F01BFB99208A
:1043800002F018FB002002F015FBA82002F012FB3F
:10439000002002F00FFBB92002F00CFB002002F01D
:1043A00009FBC42002F006FB002002F003FBCA2038
:1043B00002F000FB002002F0FDFAD22002F0FAFA2F
:1043C000002002F0F7FAD82002F0F4FA002002F000
:1043D000F1FAE02002F0EEFA002002F0EBFAF3200E
:1043E00002F0E8FA002002F0E5FAE22002F0EEFA2C
:1043F000052002F0DFFA002002F0DCFA0B2002F0C8
:10440000D9FA002002F0D6FA1B2002F0D3FA0020DD
:1044100002F0D0FA342002F0CDFA002002F0CAFAFD
:10442000442002F0C7FA002002F0C4FA4F2002F044
:10443000C1FA002002F0BEFA612002F0BBFA0020AF
:1044400002F0B8FA792002F0B5FA002002F0B2FAD0
:10445000882002F0AFFA002002F0ACFA972002F0B8
:10446000A9FA002002F0A6FAA62002F0A3FA002082
:1044700002F0A0FAB72002F09DFA002002F09AFAAA
:10448000C22002F097FA002002F094FAC72002F04E
:1044900091FA002002F08EFAD12002F08BFA00206F
:1044A00002F088FAD62002F085FA002002F082FAA3
:1044B000DD2002F07FFA002002F07CFAF32002F007
:1044C00079FA002002F076FAE32002F07FFA052064
:1044D00002F070FA002002F06DFA0A2002F06AFA87
:1044E000002002F067FA1C2002F064FA002002F0BB
:1044F00061FA332002F05EFA002002F05BFA4420F9
:1045000002F058FA002002F055FA502002F052FA58
:10451000002002F04FFA622002F04CFA002002F074
:1045200049FA782002F046FA002002F043FA882087
:1045300002F040FA002002F03DFA972002F03AFA29
:10454000002002F037FAA62002F034FA002002F030
:1045500031FAB72002F02EFA002002F02BFAC22026
:1045600002F028FA002002F025FAC72002F022FA11
:10457000002002F01FFAD12002F01CFA002002F005
:1045800019FAD52002F016FA002002F013FADD2005
:1045900002F010FA002002F00DFAF32002F00AFAFD
:1045A000002002F007FAE42002F010FA012002F0E5
:1045B00001FA002002F0FEF9012002F0FBF90020D0
:1045C00002F0F8F9022002F0F5F9002002F0F2F909
:1045D0002A2002F0EFF9002002F0ECF93C2002F072
:1045E000E9F9002002F0E6F94B2002F0E3F900209F
:1045F00002F0E0F95D2002F0DDF9002002F0DAF9C6
:10460000742002F0D7F9002002F0D4F9842002F0DF
:10461000D1F9002002F0CEF9932002F0CBF900206E
:1046200002F0C8F9A22002F0C5F9002002F0C2F998
:10463000B32002F0BFF9002002F0BCF9BE2002F066
:10464000B9F9002002F0B6F9C42002F0B3F9002055
:1046500002F0B0F9CD2002F0ADF9002002F0AAF985
:10466000D32002F0A7F9002002F0A4F9DD2002F027
:10467000A1F9002002F09EF9F32002F09BF900203E
:1046800002F098F9E52002F0A1F9002002F092F979
:10469000002002F08FF9002002F08CF9002002F0D7
:1046A00089F9022002F086F9002002F083F929201E
:1046B00002F080F9002002F07DF93C2002F07AF946
:1046C000002002F077F94B2002F074F9002002F08C
:1046D00071F95D2002F06EF9002002F06BF9742090
:1046E00002F068F9002002F065F9842002F062F916
:1046F000002002F05FF9932002F05CF9002002F044
:1047000059F9A22002F056F9002002F053F9B32023
:1047100002F050F9002002F04DF9BE2002F04AF9F3
:10472000002002F047F9C42002F044F9002002F012
:1047300041F9CD2002F03EF9002002F03BF9D320F0
:1047400002F038F9002002F035F9DC2002F032F9ED
:10475000002002F02FF9F32002F02CF9002002F0E3
:1047600029F9E62002F032F9112002F023F90020A5
:1047700002F020F9342002F01DF9002002F01AF9AD
:10478000562002F017F9002002F014F9762002F00A
:1047900011F9002002F00EF9772002F00BF9002049
:1047A00002F008F9662002F005F9002002F002F993
:1047B000882002F0FFF8002002F0FCF8992002F0B7
:1047C000F9F8002002F0F6F8BB2002F0F3F8002020
:1047D00002F0F0F8992002F0EDF8002002F0EAF87B
:1047E000662002F0E7F8002002F0E4F8552002F01D
:1047F000E1F8002002F0DEF8552002F0DBF800209E
:1048000002F0D8F8452002F0D5F8002002F0D2F8E6
:10481000432002F0CFF8002002F0CCF8442002F050
:10482000C9F8002002F0C6F8E72002F0CFF83220E5
:1048300002F0C0F8002002F0BDF8552002F0BAF8EE
:10484000002002F0B7F8762002F0B4F8002002F061
:10485000B1F8662002F0AEF8002002F0ABF8672055
:1048600002F0A8F8002002F0A5F8672002F0A2F8F4
:10487000002002F09FF8872002F09CF8002002F050
:1048800099F8992002F096F8002002F093F8BB20E6
:1048900002F090F8002002F08DF8992002F08AF8DA
:1048A000002002F087F8772002F084F8002002F060
:1048B00081F8442002F07EF8002002F07BF85620B8
:1048C00002F078F8002002F075F8232002F072F868
:1048D000002002F06FF8332002F06CF8002002F0A4
:1048E00069F8452002F066F8002002F063F8E8203D
:1048F00002F06CF8002002F05DF8002002F05AF897
:10490000992002F057F8002002F054F8872002F0B6
:1049100051F8002002F04EF8882002F04BF80020F9
:1049200002F048F8772002F045F8002002F042F843
:10493000662002F03FF8002002F03CF8882002F0E8
:1049400039F8002002F036F8AA2002F033F80020EF
:1049500002F030F8BB2002F02DF8002002F02AF817
:10496000992002F027F8002002F024F8662002F0D7
:1049700021F8002002F01EF8552002F01BF800205C
:1049800002F018F8552002F015F8002002F012F895
:10499000442002F00FF8002002F00CF8442002F04E
:1049A00009F8002002F006F8552002F003F8002074
:1049B00002F000F8E92002F009F8AA2001F0FAFF5D
:1049C000002001F0F7FF002001F0F4FF002001F0CB
:1049D000F1FF002001F0FAFFAA2001F0EBFFCF2049
:1049E00001F0F4FF002001F0E5FF002001F0E2FFFC
:1049F000002001F0DFFF002001F0DCFF002001F0CB
:104A0000D9FF002001F0D6FF002001F0D3FF0020E5
:104A100001F0D0FF002001F0CDFF002001F0CAFF1F
:104A2000002001F0C7FF002001F0C4FF002001F0CA
:104A3000C1FF002001F0BEFF002001F0BBFF0020FD
:104A400001F0B8FF002001F0B5FFF02001F0BEFF3B
:104A5000002001F0AFFF502001F0ACFF002001F07A
:104A6000A9FF002001F0A6FF002001F0A3FFF32022
:104A700001F0ACFF002001F09DFFF92001F0A6FF3E
:104A8000062001F097FF102001F094FF292001F08B
:104A900091FF002001F08EFF3A2001F097FF552092
:104AA00001F088FF112001F091FF6420FEF76EFAFB
:104AB000292001F08BFF352001F088FF002001F054
:104AC00079FF512001F082FFFF2001F073FF532096
:104AD00001F07CFF2C2001F06DFF552001F076FFE6
:104AE000822001F067FF2C2001F070FF10BD10B58F
:104AF00055214FF4704001F07FFFAA214FF20100D1
:104B000001F07AFF52214FF2020001F075FF0821F7
:104B10004FF2030001F070FF01214FF2040001F099
:104B20006BFF0D214FF4304001F066FF0D214BF279
:104B3000010001F061FF0D214BF2020001F05CFF6A
:104B400034214FF4364001F057FF34214BF201601D
:104B500001F052FF34214BF2026001F04DFF0D21B4
:104B60004FF4314001F048FF0D214BF2011001F0EC
:104B700043FF0D214BF2021001F03EFF34214FF4B0
:104B8000374001F039FF34214BF2017001F034FF5E
:104B900034214BF2027001F02FFF00214FF432401C
:104BA00001F02AFF00214BF2012001F025FF002136
:104BB0004BF2022001F020FF24214FF4384001F095
:104BC0001BFF24214BF6010001F016FF24214BF6B8
:104BD000020001F011FF01214FF43F4001F00CFFF2
:104BE0000F214FF4334001F007FF0F214BF201304A
:104BF00001F002FF0F214BF2023001F0FDFE3421E3
:104C00004FF4394001F0F8FE34214BF6011001F069
:104C1000F3FE34214BF6021001F0EEFE08214FF4B2
:104C2000354001F0E9FE08214BF2015001F0E4FEAD
:104C300008214BF2025001F0DFFE03214FF4424005
:104C400001F0DAFE24214FF43A4001F0D5FE242190
:104C50004BF6012001F0D0FE24214BF6022001F09A
:104C6000CBFE00214FF43C4001F0C6FE78214BF60C
:104C7000014001F0C1FE00214BF6024001F0BCFEF4
:104C800000214FF43D4001F0B7FE78214BF6015072
:104C900001F0B2FE00214BF6025001F0ADFE002102
:104CA0004FF43E4001F0A8FE64214BF6016001F094
:104CB000A3FE00214FF4514001F09EFE33214DF23E
:104CC000011001F099FE00214DF2021001F094FE56
:104CD00034214DF2031001F08FFE00214DF204103B
:104CE00001F08AFE3A214DF2051001F085FE002107
:104CF0004DF2061001F080FE4A214DF2071001F03E
:104D00007BFE00214DF2081001F076FE5C214DF291
:104D1000091001F071FE00214DF20A1001F06CFE45
:104D200081214DF20B1001F067FE00214DF20C10B5
:104D300001F062FEA6214DF20D1001F05DFE002192
:104D40004DF20E1001F058FEE5214DF20F1001F06A
:104D500053FE01214DF2101001F04EFE13214DF2D1
:104D6000111001F049FE01214DF2121001F044FE34
:104D700054214DF2131001F03FFE01214DF21410A9
:104D800001F03AFE82214DF2151001F035FE0121AD
:104D90004DF2161001F030FECA214DF2171001F04D
:104DA0002BFE02214DF2181001F026FE00214DF2DB
:104DB000191001F021FE02214DF21A1001F01CFE23
:104DC00001214DF21B1001F017FE02214DF21C10C3
:104DD00001F012FE34214DF21D1001F00DFE0221F2
:104DE0004DF21E1001F008FE67214DF21F1001F078
:104DF00003FE02214DF2201001F0FEFD84214DF250
:104E0000211001F0F9FD02214DF2221001F0F4FD14
:104E1000A4214DF2231001F0EFFD02214DF22410E8
:104E200001F0EAFDB7214DF2251001F0E5FD022168
:104E30004DF2261001F0E0FDCF214DF2271001F0D8
:104E4000DBFD02214DF2281001F0D6FDDE214DF2EE
:104E5000291001F0D1FD02214DF22A1001F0CCFD04
:104E6000F2214DF22B1001F0C7FD02214DF22C1062
:104E700001F0C2FDFE214DF22D1001F0BDFD032118
:104E80004DF22E1001F0B8FD10214DF22F1001F05F
:104E9000B3FD03214DF2301001F0AEFD33214DF290
:104EA000311001F0A9FD03214DF2321001F0A4FDF3
:104EB0006D214DF2331001F09FFD00214FF452405F
:104EC00001F09AFD33214DF2012001F095FD002102
:104ED0004DF2022001F090FD34214DF2032001F04B
:104EE0008BFD00214DF2042001F086FD3A214DF2A8
:104EF000052001F081FD00214DF2062001F07CFD2E
:104F00004A214DF2072001F077FD00214DF20820E3
:104F100001F072FD5C214DF2092001F06DFD0021D0
:104F20004DF20A2001F068FD81214DF20B2001F0C5
:104F300063FD00214DF20C2001F05EFDA6214DF233
:104F40000D2001F059FD00214DF20E2001F054FD1D
:104F5000E5214DF20F2001F04FFD01214DF210200F
:104F600001F04AFD13214DF2112001F045FD012110
:104F70004DF2122001F040FD54214DF2132001F0BA
:104F80003BFD01214DF2142001F036FD82214DF24E
:104F9000152001F031FD01214DF2162001F02CFD0C
:104FA000CA214DF2172001F027FD02214DF21820F1
:104FB00001F022FD00214DF2192001F01DFD02211A
:104FC0004DF21A2001F018FD01214DF21B2001F0D5
:104FD00013FD02214DF21C2001F00EFD34214DF293
:104FE0001D2001F009FD02214DF21E2001F004FDFB
:104FF00067214DF21F2001F0FFFC02214DF220201D
:1050000001F0FAFC84214DF2212001F0F5FC02218F
:105010004DF2222001F0F0FCA4214DF2232001F0FA
:10502000EBFC02214DF2242001F0E6FCB7214DF209
:10503000252001F0E1FC02214DF2262001F0DCFCEC
:10504000CF214DF2272001F0D7FC02214DF228207C
:1050500001F0D2FCDE214DF2292001F0CDFC02212D
:105060004DF22A2001F0C8FCF2214DF22B2001F074
:10507000C3FC02214DF22C2001F0BEFCFE214DF2BA
:105080002D2001F0B9FC03214DF22E2001F0B4FCDB
:1050900010214DF22F2001F0AFFC03214DF2302002
:1050A00001F0AAFC33214DF2312001F0A5FC0321CF
:1050B0004DF2322001F0A0FC6D214DF2332001F0C1
:1050C0009BFC00214FF4534001F096FC33214DF23C
:1050D000013001F091FC00214DF2023001F08CFC16
:1050E00034214DF2033001F087FC00214DF20430F1
:1050F00001F082FC3A214DF2053001F07DFC0021E7
:105100004DF2063001F078FC4A214DF2073001F0F3
:1051100073FC00214DF2083001F06EFC5C214DF271
:10512000093001F069FC00214DF20A3001F064FC05
:1051300081214DF20B3001F05FFC00214DF20C306B
:1051400001F05AFCA6214DF20D3001F055FC002172
:105150004DF20E3001F050FCE5214DF20F3001F020
:105160004BFC01214DF2103001F046FC13214DF2B1
:10517000113001F041FC01214DF2123001F03CFCF4
:1051800054214DF2133001F037FC01214DF214305F
:1051900001F032FC82214DF2153001F02DFC01218D
:1051A0004DF2163001F028FCCA214DF2173001F003
:1051B00023FC02214DF2183001F01EFC00214DF2BB
:1051C000193001F019FC02214DF21A3001F014FCE3
:1051D00001214DF21B3001F00FFC02214DF21C3079
:1051E00001F00AFC34214DF21D3001F005FC0221D2
:1051F0004DF21E3001F000FC67214DF21F3001F02E
:10520000FBFB02214DF2203001F0F6FB84214DF230
:10521000213001F0F1FB02214DF2223001F0ECFBD4
:10522000A4214DF2233001F0E7FB02214DF224309E
:1052300001F0E2FBB7214DF2253001F0DDFB022148
:105240004DF2263001F0D8FBCF214DF2273001F08E
:10525000D3FB02214DF2283001F0CEFBDE214DF2CE
:10526000293001F0C9FB02214DF22A3001F0C4FBC4
:10527000F2214DF22B3001F0BFFB02214DF22C3018
:1052800001F0BAFBFE214DF22D3001F0B5FB0321F8
:105290004DF22E3001F0B0FB10214DF22F3001F015
:1052A000ABFB03214DF2303001F0A6FB33214DF270
:1052B000313001F0A1FB03214DF2323001F09CFBB3
:1052C0006D214DF2333001F097FB00214FF4544033
:1052D00001F092FB33214DF2014001F08DFB0021E2
:1052E0004DF2024001F088FB34214DF2034001F001
:1052F00083FB00214DF2044001F07EFB3A214DF288
:10530000054001F079FB00214DF2064001F074FBED
:105310004A214DF2074001F06FFB00214DF2084099
:1053200001F06AFB5C214DF2094001F065FB0021B0
:105330004DF20A4001F060FB81214DF20B4001F07B
:105340005BFB00214DF20C4001F056FBA6214DF213
:105350000D4001F051FB00214DF20E4001F04CFBDD
:10536000E5214DF20F4001F047FB01214DF21040C5
:1053700001F042FB13214DF2114001F03DFB0121F0
:105380004DF2124001F038FB54214DF2134001F070
:1053900033FB01214DF2144001F02EFB82214DF22E
:1053A000154001F029FB01214DF2164001F024FBCC
:1053B000CA214DF2174001F01FFB02214DF21840A7
:1053C00001F01AFB00214DF2194001F015FB0221FA
:1053D0004DF21A4001F010FB01214DF21B4001F08B
:1053E0000BFB02214DF21C4001F006FB34214DF273
:1053F0001D4001F001FB02214DF21E4001F0FCFABC
:1054000067214DF21F4001F0F7FA02214DF22040D2
:1054100001F0F2FA84214DF2214001F0EDFA02216F
:105420004DF2224001F0E8FAA4214DF2234001F0B0
:10543000E3FA02214DF2244001F0DEFAB7214DF2E9
:10544000254001F0D9FA02214DF2264001F0D4FAAC
:10545000CF214DF2274001F0CFFA02214DF2284032
:1054600001F0CAFADE214DF2294001F0C5FA02210D
:105470004DF22A4001F0C0FAF2214DF22B4001F02A
:10548000BBFA02214DF22C4001F0B6FAFE214DF29A
:105490002D4001F0B1FA03214DF22E4001F0ACFA9B
:1054A00010214DF22F4001F0A7FA03214DF23040B8
:1054B00001F0A2FA33214DF2314001F09DFA0321AF
:1054C0004DF2324001F098FA6D214DF2334001F077
:1054D00093FA00214FF4554001F08EFA33214DF23A
:1054E000015001F089FA00214DF2025001F084FAD6
:1054F00034214DF2035001F07FFA00214DF20450A7
:1055000001F07AFA3A214DF2055001F075FA0021C6
:105510004DF2065001F070FA4A214DF2075001F0A9
:105520006BFA00214DF2085001F066FA5C214DF251
:10553000095001F061FA00214DF20A5001F05CFAC5
:1055400081214DF20B5001F057FA00214DF20C5021
:1055500001F052FAA6214DF20D5001F04DFA002152
:105560004DF20E5001F048FAE5214DF20F5001F0D6
:1055700043FA01214DF2105001F03EFA13214DF291
:10558000115001F039FA01214DF2125001F034FAB4
:1055900054214DF2135001F02FFA01214DF2145015
:1055A00001F02AFA82214DF2155001F025FA01216D
:1055B0004DF2165001F020FACA214DF2175001F0B9
:1055C0001BFA02214DF2185001F016FA00214DF29B
:1055D000195001F011FA02214DF21A5001F00CFAA3
:1055E00001214DF21B5001F007FA02214DF21C502F
:1055F00001F002FA34214DF21D5001F0FDF90221B3
:105600004DF21E5001F0F8F967214DF21F5001F0E4
:10561000F3F902214DF2205001F0EEF984214DF210
:10562000215001F0E9F902214DF2225001F0E4F994
:10563000A4214DF2235001F0DFF902214DF2245054
:1056400001F0DAF9B7214DF2255001F0D5F9022128
:105650004DF2265001F0D0F9CF214DF2275001F044
:10566000CBF902214DF2285001F0C6F9DE214DF2AE
:10567000295001F0C1F902214DF22A5001F0BCF984
:10568000F2214DF22B5001F0B7F902214DF22C50CE
:1056900001F0B2F9FE214DF22D5001F0ADF90321D8
:1056A0004DF22E5001F0A8F910214DF22F5001F0CB
:1056B000A3F903214DF2305001F09EF933214DF250
:1056C000315001F099F903214DF2325001F094F973
:1056D0006D214DF2335001F08FF900214FF4564007
:1056E00001F08AF933214DF2016001F085F90021C2
:1056F0004DF2026001F080F934214DF2036001F0B7
:105700007BF900214DF2046001F076F93A214DF267
:10571000056001F071F900214DF2066001F06CF9AD
:105720004A214DF2076001F067F900214DF208604F
:1057300001F062F95C214DF2096001F05DF9002190
:105740004DF20A6001F058F981214DF20B6001F031
:1057500053F900214DF20C6001F04EF9A6214DF2F3
:105760000D6001F049F900214DF20E6001F044F99D
:10577000E5214DF20F6001F03FF901214DF210607B
:1057800001F03AF913214DF2116001F035F90121D0
:105790004DF2126001F030F954214DF2136001F026
:1057A0002BF901214DF2146001F026F982214DF20E
:1057B000156001F021F901214DF2166001F01CF98C
:1057C000CA214DF2176001F017F902214DF218605D
:1057D00001F012F900214DF2196001F00DF90221DA
:1057E0004DF21A6001F008F901214DF21B6001F041
:1057F00003F902214DF21C6001F0FEF834214DF254
:105800001D6001F0F9F802214DF21E6001F0F4F87C
:1058100067214DF21F6001F0EFF802214DF2206088
:1058200001F0EAF884214DF2216001F0E5F802214F
:105830004DF2226001F0E0F8A4214DF2236001F066
:10584000DBF802214DF2246001F0D6F8B7214DF2C9
:10585000256001F0D1F802214DF2266001F0CCF86C
:10586000CF214DF2276001F0C7F802214DF22860E8
:1058700001F0C2F8DE214DF2296001F0BDF80221ED
:105880004DF22A6001F0B8F8F2214DF22B6001F0E0
:10589000B3F802214DF22C6001F0AEF8FE214DF27A
:1058A0002D6001F0A9F803214DF22E6001F0A4F85B
:1058B00010214DF22F6001F09FF803214DF230606E
:1058C00001F09AF833214DF2316001F095F803218F
:1058D0004DF2326001F090F86D214DF2336001F02D
:1058E0008BF855214FF4704001F086F8AA214FF251
:1058F000010001F081F852214FF2020001F07CF822
:1059000008214FF2030001F077F800214FF2040064
:1059100001F072F8CC214FF4314001F06DF8002114
:105920004BF2011001F068F805214FF4364001F008
:1059300063F870214FF4374001F05EF870214BF2AC
:10594000017001F059F801214FF4384001F054F88A
:1059500003214BF6010001F04FF803214BF6020042
:1059600001F04AF803214BF6030001F045F802214B
:105970004FF43C4001F040F800214BF6014001F0AB
:105980003BF800214BF6024001F036F8D0214FF4ED
:10599000494001F031F802214CF6011001F02CF8D9
:1059A00050214CF6021001F027F850214CF603105C
:1059B00001F022F850214CF6041001F01DF80021EE
:1059C0004FF4545001F018F855214FF4685001F08D
:1059D00013F84FF4885000F0F9FF7820FDF7E0FA53
:1059E0004FF4245000F0F2FF10BD10B5E22000F09B
:1059F000EDFF1D2000F0DEFF022000F0DBFF0420A1
:105A000000F0D8FF6420FDF7CBFAE02000F0DEFFC5
:105A1000012000F0CFFF0A20FDF7B8FAE02000F0E7
:105A2000D5FF032000F0C6FF0C20FDF7AFFA0120E0
:105A300000F0CCFF0A20FDF7A9FAE62000F0C6FF2F
:105A40002F2000F0B7FFFF2000F0B4FFFF2000F090
:105A5000B1FFB02000F0BAFF202000F0ABFF002023
:105A600000F0A8FF032000F0A5FF40F21F3000F077
:105A7000A1FF012000F09EFF40F2DF1000F09AFF2E
:105A8000002000F097FFB42000F0A0FF042000F0F9
:105A900091FF40F21F4000F08DFF002000F08AFFD0
:105AA0002E2000F087FF002000F084FF002000F08F
:105AB00081FF002000F07EFF002000F07BFFB62079
:105AC00000F084FF022000F075FF4FF4037000F037
:105AD00071FF002000F06EFF172000F06BFF152013
